{
  "contractName": "Voting",
  "abi": [
    {
      "inputs": [],
      "stateMutability": "nonpayable",
      "type": "constructor"
    },
    {
      "inputs": [],
      "name": "admin",
      "outputs": [
        {
          "internalType": "address",
          "name": "",
          "type": "address"
        }
      ],
      "stateMutability": "view",
      "type": "function",
      "constant": true
    },
    {
      "inputs": [
        {
          "internalType": "uint256",
          "name": "",
          "type": "uint256"
        }
      ],
      "name": "candidates",
      "outputs": [
        {
          "internalType": "uint256",
          "name": "id",
          "type": "uint256"
        },
        {
          "internalType": "string",
          "name": "name",
          "type": "string"
        },
        {
          "internalType": "uint256",
          "name": "voteCount",
          "type": "uint256"
        }
      ],
      "stateMutability": "view",
      "type": "function",
      "constant": true
    },
    {
      "inputs": [],
      "name": "candidatesCount",
      "outputs": [
        {
          "internalType": "uint256",
          "name": "",
          "type": "uint256"
        }
      ],
      "stateMutability": "view",
      "type": "function",
      "constant": true
    },
    {
      "inputs": [
        {
          "internalType": "address",
          "name": "",
          "type": "address"
        }
      ],
      "name": "hasVoted",
      "outputs": [
        {
          "internalType": "bool",
          "name": "",
          "type": "bool"
        }
      ],
      "stateMutability": "view",
      "type": "function",
      "constant": true
    },
    {
      "inputs": [
        {
          "internalType": "string",
          "name": "_name",
          "type": "string"
        }
      ],
      "name": "addCandidate",
      "outputs": [],
      "stateMutability": "nonpayable",
      "type": "function"
    },
    {
      "inputs": [
        {
          "internalType": "uint256",
          "name": "_candidateId",
          "type": "uint256"
        }
      ],
      "name": "vote",
      "outputs": [],
      "stateMutability": "nonpayable",
      "type": "function"
    },
    {
      "inputs": [
        {
          "internalType": "uint256",
          "name": "_id",
          "type": "uint256"
        }
      ],
      "name": "getCandidate",
      "outputs": [
        {
          "internalType": "uint256",
          "name": "",
          "type": "uint256"
        },
        {
          "internalType": "string",
          "name": "",
          "type": "string"
        },
        {
          "internalType": "uint256",
          "name": "",
          "type": "uint256"
        }
      ],
      "stateMutability": "view",
      "type": "function",
      "constant": true
    }
  ],
  "bytecode": "0x608060405234801561000f575f80fd5b50335f806101000a81548173ffffffffffffffffffffffffffffffffffffffff021916908373ffffffffffffffffffffffffffffffffffffffff160217905550610e388061005c5f395ff3fe608060405234801561000f575f80fd5b506004361061007b575f3560e01c80633477ee2e116100595780633477ee2e146100e957806335b8e8201461011b578063462e91ec1461014d578063f851a440146101695761007b565b80630121b93f1461007f57806309eef43e1461009b5780632d35a8a2146100cb575b5f80fd5b610099600480360381019061009491906105fb565b610187565b005b6100b560048036038101906100b09190610680565b6102e1565b6040516100c291906106c5565b60405180910390f35b6100d36102fe565b6040516100e091906106ed565b60405180910390f35b61010360048036038101906100fe91906105fb565b610304565b60405161011293929190610790565b60405180910390f35b610135600480360381019061013091906105fb565b6103b0565b60405161014493929190610790565b60405180910390f35b610167600480360381019061016291906108f8565b610492565b005b610171610594565b60405161017e919061094e565b60405180910390f35b60015f3373ffffffffffffffffffffffffffffffffffffffff1673ffffffffffffffffffffffffffffffffffffffff1681526020019081526020015f205f9054906101000a900460ff1615610211576040517f08c379a0000000000000000000000000000000000000000000000000000000008152600401610208906109b1565b60405180910390fd5b5f8111801561022257506003548111155b610261576040517f08c379a000000000000000000000000000000000000000000000000000000000815260040161025890610a19565b60405180910390fd5b6001805f3373ffffffffffffffffffffffffffffffffffffffff1673ffffffffffffffffffffffffffffffffffffffff1681526020019081526020015f205f6101000a81548160ff02191690831515021790555060025f8281526020019081526020015f206002015f8154809291906102d990610a64565b919050555050565b6001602052805f5260405f205f915054906101000a900460ff1681565b60035481565b6002602052805f5260405f205f91509050805f01549080600101805461032990610ad8565b80601f016020809104026020016040519081016040528092919081815260200182805461035590610ad8565b80156103a05780601f10610377576101008083540402835291602001916103a0565b820191905f5260205f20905b81548152906001019060200180831161038357829003601f168201915b5050505050908060020154905083565b5f60605f8060025f8681526020019081526020015f206040518060600160405290815f82015481526020016001820180546103ea90610ad8565b80601f016020809104026020016040519081016040528092919081815260200182805461041690610ad8565b80156104615780601f1061043857610100808354040283529160200191610461565b820191905f5260205f20905b81548152906001019060200180831161044457829003601f168201915b505050505081526020016002820154815250509050805f015181602001518260400151935093509350509193909250565b5f8054906101000a900473ffffffffffffffffffffffffffffffffffffffff1673ffffffffffffffffffffffffffffffffffffffff163373ffffffffffffffffffffffffffffffffffffffff161461051f576040517f08c379a000000000000000000000000000000000000000000000000000000000815260040161051690610b78565b60405180910390fd5b60035f81548092919061053190610a64565b9190505550604051806060016040528060035481526020018281526020015f81525060025f60035481526020019081526020015f205f820151815f015560208201518160010190816105839190610d33565b506040820151816002015590505050565b5f8054906101000a900473ffffffffffffffffffffffffffffffffffffffff1681565b5f604051905090565b5f80fd5b5f80fd5b5f819050919050565b6105da816105c8565b81146105e4575f80fd5b50565b5f813590506105f5816105d1565b92915050565b5f602082840312156106105761060f6105c0565b5b5f61061d848285016105e7565b91505092915050565b5f73ffffffffffffffffffffffffffffffffffffffff82169050919050565b5f61064f82610626565b9050919050565b61065f81610645565b8114610669575f80fd5b50565b5f8135905061067a81610656565b92915050565b5f60208284031215610695576106946105c0565b5b5f6106a28482850161066c565b91505092915050565b5f8115159050919050565b6106bf816106ab565b82525050565b5f6020820190506106d85f8301846106b6565b92915050565b6106e7816105c8565b82525050565b5f6020820190506107005f8301846106de565b92915050565b5f81519050919050565b5f82825260208201905092915050565b5f5b8381101561073d578082015181840152602081019050610722565b5f8484015250505050565b5f601f19601f8301169050919050565b5f61076282610706565b61076c8185610710565b935061077c818560208601610720565b61078581610748565b840191505092915050565b5f6060820190506107a35f8301866106de565b81810360208301526107b58185610758565b90506107c460408301846106de565b949350505050565b5f80fd5b5f80fd5b7f4e487b71000000000000000000000000000000000000000000000000000000005f52604160045260245ffd5b61080a82610748565b810181811067ffffffffffffffff82111715610829576108286107d4565b5b80604052505050565b5f61083b6105b7565b90506108478282610801565b919050565b5f67ffffffffffffffff821115610866576108656107d4565b5b61086f82610748565b9050602081019050919050565b828183375f83830152505050565b5f61089c6108978461084c565b610832565b9050828152602081018484840111156108b8576108b76107d0565b5b6108c384828561087c565b509392505050565b5f82601f8301126108df576108de6107cc565b5b81356108ef84826020860161088a565b91505092915050565b5f6020828403121561090d5761090c6105c0565b5b5f82013567ffffffffffffffff81111561092a576109296105c4565b5b610936848285016108cb565b91505092915050565b61094881610645565b82525050565b5f6020820190506109615f83018461093f565b92915050565b7f596f75206861766520616c726561647920766f746564000000000000000000005f82015250565b5f61099b601683610710565b91506109a682610967565b602082019050919050565b5f6020820190508181035f8301526109c88161098f565b9050919050565b7f496e76616c69642063616e6469646174652049440000000000000000000000005f82015250565b5f610a03601483610710565b9150610a0e826109cf565b602082019050919050565b5f6020820190508181035f830152610a30816109f7565b9050919050565b7f4e487b71000000000000000000000000000000000000000000000000000000005f52601160045260245ffd5b5f610a6e826105c8565b91507fffffffffffffffffffffffffffffffffffffffffffffffffffffffffffffffff8203610aa057610a9f610a37565b5b600182019050919050565b7f4e487b71000000000000000000000000000000000000000000000000000000005f52602260045260245ffd5b5f6002820490506001821680610aef57607f821691505b602082108103610b0257610b01610aab565b5b50919050565b7f4f6e6c792061646d696e2063616e20706572666f726d207468697320616374695f8201527f6f6e000000000000000000000000000000000000000000000000000000000000602082015250565b5f610b62602283610710565b9150610b6d82610b08565b604082019050919050565b5f6020820190508181035f830152610b8f81610b56565b9050919050565b5f819050815f5260205f209050919050565b5f6020601f8301049050919050565b5f82821b905092915050565b5f60088302610bf27fffffffffffffffffffffffffffffffffffffffffffffffffffffffffffffffff82610bb7565b610bfc8683610bb7565b95508019841693508086168417925050509392505050565b5f819050919050565b5f610c37610c32610c2d846105c8565b610c14565b6105c8565b9050919050565b5f819050919050565b610c5083610c1d565b610c64610c5c82610c3e565b848454610bc3565b825550505050565b5f90565b610c78610c6c565b610c83818484610c47565b505050565b5b81811015610ca657610c9b5f82610c70565b600181019050610c89565b5050565b601f821115610ceb57610cbc81610b96565b610cc584610ba8565b81016020851015610cd4578190505b610ce8610ce085610ba8565b830182610c88565b50505b505050565b5f82821c905092915050565b5f610d0b5f1984600802610cf0565b1980831691505092915050565b5f610d238383610cfc565b9150826002028217905092915050565b610d3c82610706565b67ffffffffffffffff811115610d5557610d546107d4565b5b610d5f8254610ad8565b610d6a828285610caa565b5f60209050601f831160018114610d9b575f8415610d89578287015190505b610d938582610d18565b865550610dfa565b601f198416610da986610b96565b5f5b82811015610dd057848901518255600182019150602085019450602081019050610dab565b86831015610ded5784890151610de9601f891682610cfc565b8355505b6001600288020188555050505b50505050505056fea2646970667358221220e946a6e1294272193092a70150d309a9884f1cf28322c2454f45feb6dea1c49764736f6c63430008140033",
  "immutableReferences": {},
  "source": "// SPDX-License-Identifier: MIT\npragma solidity ^0.8.0;\n\ncontract Voting {\n    address public admin;\n\n    struct Candidate {\n        uint id;\n        string name;\n        uint voteCount;\n    }\n\n    mapping(address => bool) public hasVoted;\n    mapping(uint => Candidate) public candidates;\n    uint public candidatesCount;\n\n    constructor() {\n        admin = msg.sender;\n    }\n\n    modifier onlyAdmin() {\n        require(msg.sender == admin, \"Only admin can perform this action\");\n        _;\n    }\n\n    function addCandidate(string memory _name) public onlyAdmin {\n        candidatesCount++;\n        candidates[candidatesCount] = Candidate(candidatesCount, _name, 0);\n    }\n\n    function vote(uint _candidateId) public {\n        require(!hasVoted[msg.sender], \"You have already voted\");\n        require(_candidateId > 0 && _candidateId <= candidatesCount, \"Invalid candidate ID\");\n\n        hasVoted[msg.sender] = true;\n        candidates[_candidateId].voteCount++;\n    }\n\n    function getCandidate(uint _id) public view returns (uint, string memory, uint) {\n        Candidate memory c = candidates[_id];\n        return (c.id, c.name, c.voteCount);\n    }\n}\n",
  "sourcePath": "/Users/mayanksikarwar/Desktop/Voting-System/contracts/Voting.sol",
  "compiler": {
    "name": "solc",
    "version": "0.8.20+commit.a1b79de6.Emscripten.clang"
  },
  "schemaVersion": "3.4.16",
  "updatedAt": "2025-05-04T18:23:42.794Z",
  "networkType": "ethereum",
  "devdoc": {
    "kind": "dev",
    "methods": {},
    "version": 1
  },
  "userdoc": {
    "kind": "user",
    "methods": {},
    "version": 1
  }
}